:020000040800F2
:1000000000000220493600080D3400080F340008B3
:1000100011340008133400081534000800000000F3
:10002000000000000000000000000000173400087D
:1000300019340008000000001B3400081D340008BB
:100040009936000899360008993600089936000854
:100050009936000899360008993600089936000844
:100060009936000899360008993600089936000834
:100070009936000899360008993600089936000824
:100080009936000899360008993600089936000814
:100090009936000899360008993600089936000804
:1000A00099360008993600089936000899360008F4
:1000B00099360008253400083534000899360008C0
:1000C00099360008993600089936000899360008D4
:1000D00099360008993600089936000899360008C4
:1000E00099360008993600089936000899360008B4
:1000F00099360008993600089936000899360008A4
:100100009936000899360008993600089936000893
:100110009936000899360008993600089936000883
:100120009936000899360008993600089936000873
:100130009936000899360008993600089936000863
:100140009936000899360008993600089936000853
:100150009936000899360008993600089936000843
:100160009936000899360008993600089936000833
:1001700099360008993600089936000800000000FA
:080180009936000899360008C9
:1001880010B5054C237833B9044B13B10448AFF3C9
:1001980000800123237010BD200000200000000013
:1001A800F436000808B5034B1BB103490348AFF305
:1001B800008008BD0000000024000020F43600087C
:1001C80081F0004102E000BF83F0004330B54FEA00
:1001D80041044FEA430594EA050F08BF90EA020F6D
:1001E8001FBF54EA000C55EA020C7FEA645C7FEA00
:1001F800655C00F0E2804FEA5454D4EB5555B8BF23
:100208006D420CDD2C4480EA020281EA030382EA93
:10021800000083EA010180EA020281EA0303362D25
:1002280088BF30BD11F0004F4FEA01314FF4801CF8
:100238004CEA113102D0404261EB410113F0004F0A
:100248004FEA03334CEA133302D0524263EB4303C1
:1002580094EA050F00F0A780A4F10104D5F1200E5F
:100268000DDB02FA0EFC22FA05F2801841F10001BA
:1002780003FA0EF2801843FA05F359410EE0A5F18E
:1002880020050EF1200E012A03FA0EFC28BF4CF0BF
:10029800020C43FA05F3C01851EBE37101F0004575
:1002A80007D54FF0000EDCF1000C7EEB00006EEB82
:1002B8000101B1F5801F1BD3B1F5001F0CD349080C
:1002C8005FEA30004FEA3C0C04F101044FEA445263
:1002D80012F5800F80F09A80BCF1004F08BF5FEAEA
:1002E800500C50F1000041EB045141EA050130BDCA
:1002F8005FEA4C0C404141EB010111F4801FA4F16D
:100308000104E9D191F0000F04BF01460020B1FAC1
:1003180081F308BF2033A3F10B03B3F120020CDAF9
:100328000C3208DD02F1140CC2F10C0201FA0CF0D7
:1003380021FA02F10CE002F11402D8BFC2F1200C3C
:1003480001FA02F120FA0CFCDCBF41EA0C019040F2
:10035800E41AA2BF01EB0451294330BD6FEA04043B
:100368001F3C1CDA0C340EDC04F11404C4F1200226
:1003780020FA04F001FA02F340EA030021FA04F338
:1003880045EA030130BDC4F10C04C4F1200220FA8F
:1003980002F001FA04F340EA0300294630BD21FACD
:1003A80004F0294630BD94F0000F83F4801306BF93
:1003B80081F480110134013D4EE77FEA645C18BF87
:1003C8007FEA655C29D094EA050F08BF90EA020F1E
:1003D80005D054EA000C04BF1946104630BD91EA16
:1003E800030F1EBF0021002030BD5FEA545C05D119
:1003F8004000494128BF41F0004130BD14F5800458
:100408003CBF01F5801130BD01F0004545F0FE41CB
:1004180041F470014FF0000030BD7FEA645C1ABF00
:10042800194610467FEA655C1CBF0B46024650EA37
:10043800013406BF52EA033591EA030F41F4002163
:1004480030BD00BF90F0000F04BF0021704730B5E9
:100458004FF4806404F132044FF000054FF00001BE
:1004680050E700BF90F0000F04BF0021704730B57F
:100478004FF4806404F1320410F0004548BF404254
:100488004FF000013EE700BF42004FEAE2014FEAA9
:1004980031014FEA02701FBF12F07F4393F07F4F84
:1004A80081F06051704732F07F4208BF704793F087
:1004B8007F4F04BF41F40021704730B54FF460749A
:1004C80001F0004521F000411CE700BF50EA01029D
:1004D80008BF704730B54FF000050AE050EA010246
:1004E80008BF704730B511F0004502D5404261EBB6
:1004F80041014FF4806404F132045FEA915C3FF4F7
:10050800D8AE4FF003025FEADC0C18BF03325FEA93
:10051800DC0C18BF033202EBDC02C2F1200300FA44
:1005280003FC20FA02F001FA03FE40EA0E0021FA69
:1005380002F11444BDE600BF70B54FF0FF0C4CF457
:10054800E06C1CEA11541DBF1CEA135594EA0C0F09
:1005580095EA0C0F00F0DEF82C4481EA030621EA44
:100568004C5123EA4C5350EA013518BF52EA03357F
:1005780041F4801143F4801338D0A0FB02CE4FF031
:100588000005E1FB02E506F00042E0FB03E54FF061
:100598000006E1FB03569CF0000F18BF4EF0010E59
:1005A800A4F1FF04B6F5007F64F5407404D25FEA55
:1005B8004E0E6D4146EB060642EAC62141EA555108
:1005C8004FEAC52040EA5E504FEACE2EB4F1FD0C4A
:1005D80088BFBCF5E06F1ED8BEF1004F08BF5FEAC8
:1005E800500E50F1000041EB045170BD06F000467A
:1005F80046EA010140EA020081EA0301B4EB5C0427
:10060800C2BFD4EB0C0541EA045170BD41F480111E
:100618004FF0000E013C00F3AB8014F1360FDEBF43
:10062800002001F0004170BDC4F10004203C35DA1F
:100638000C341BDC04F11404C4F1200500FA05F3A2
:1006480020FA04F001FA05F240EA020001F0004243
:1006580021F0004110EBD37021FA04F642EB0601B9
:100668005EEA430E08BF20EAD37070BDC4F10C04E3
:10067800C4F1200500FA04F320FA05F001FA04F2A7
:1006880040EA020001F0004110EBD37041F1000193
:100698005EEA430E08BF20EAD37070BDC4F120059E
:1006A80000FA05F24EEA020E20FA04F301FA05F206
:1006B80043EA020321FA04F001F0004121FA04F2AE
:1006C80020EA020000EBD3705EEA430E08BF20EA7E
:1006D800D37070BD94F0000F0FD101F000464000B8
:1006E80041EB010111F4801F08BF013CF7D041EA3A
:1006F800060195F0000F18BF704703F0004652003E
:1007080043EB030313F4801F08BF013DF7D043EA0E
:100718000603704794EA0C0F0CEA135518BF95EAC4
:100728000C0F0CD050EA410618BF52EA4306D1D14B
:1007380081EA030101F000414FF0000070BD50EA6A
:10074800410606BF1046194652EA430619D094EAF4
:100758000C0F02D150EA013613D195EA0C0F05D1DE
:1007680052EA03361CBF104619460AD181EA030132
:1007780001F0004141F0FE4141F470014FF00000EA
:1007880070BD41F0FE4141F4780170BD70B54FF085
:10079800FF0C4CF4E06C1CEA11541DBF1CEA135505
:1007A80094EA0C0F95EA0C0F00F0A7F8A4EB0504E7
:1007B80081EA030E52EA03354FEA013100F08880DE
:1007C8004FEA03334FF0805545EA131343EA1263A7
:1007D8004FEA022245EA111545EA10654FEA00265C
:1007E8000EF000419D4208BF964244F1FD0404F515
:1007F800407402D25B084FEA3202B61A65EB030571
:100808005B084FEA32024FF480104FF4002CB6EB2D
:10081800020E75EB030E22BFB61A754640EA0C00AD
:100828005B084FEA3202B6EB020E75EB030E22BFED
:10083800B61A754640EA5C005B084FEA3202B6EB2E
:10084800020E75EB030E22BFB61A754640EA9C00ED
:100858005B084FEA3202B6EB020E75EB030E22BFBD
:10086800B61A754640EADC0055EA060E18D04FEA7B
:10087800051545EA16754FEA06164FEAC30343EA1B
:1008880052734FEAC2025FEA1C1CC0D111F4801FE8
:100898000BD141EA00014FF000004FF0004CB6E7E1
:1008A80011F4801F04BF01430020B4F1FD0C88BF80
:1008B800BCF5E06F3FF6AFAEB5EB030C04BFB6EB8B
:1008C800020C5FEA500C50F1000041EB045170BD7E
:1008D8000EF0004E4EEA113114EB5C04C2BFD4EBAB
:1008E8000C0541EA045170BD41F480114FF0000E2F
:1008F800013C90E645EA060E8DE60CEA135594EAAB
:100908000C0F08BF95EA0C0F3FF43BAF94EA0C0FAD
:100918000AD150EA01347FF434AF95EA0C0F7FF422
:1009280025AF104619462CE795EA0C0F06D152EA76
:1009380003353FF4FDAE1046194622E750EA41065A
:1009480018BF52EA43067FF4C5AE50EA41047FF46B
:100958000DAF52EA43057FF4EBAE12E74A0011D21D
:1009680012F5001211D20DD56FF47873B3EB625201
:100978000ED44FEAC12343F0004343EA505323FA0D
:1009880002F070474FF00000704750EA013002D182
:100998004FF0FF3070474FF00000704753B94AB925
:1009A800002908BF00281CBF4FF0FF314FF0FF306F
:1009B80000F072B9ADF1080C6DE904CE00F006F84C
:1009C800DDF804E0DDE9022304B070472DE9F047C3
:1009D800089E04468846002B4BD18A42154667D9A3
:1009E800B2FA82F24AB1C2F1200701FA02F320FA00
:1009F80007F7954047EA030894404FEA154E230C41
:100A0800B8FBFEF71FFA85FC0EFB178843EA08437C
:100A180007FB0CF1994209D9EB1807F1FF3080F078
:100A28001B81994240F21881023F2B445B1AA4B201
:100A3800B3FBFEF00EFB103344EA034400FB0CFC4E
:100A4800A44509D92C1900F1FF3380F00781A4458A
:100A580040F2048102382C4440EA0740A4EB0C041D
:100A680000271EB1D4400023C6E900433946BDE83B
:100A7800F0878B4209D9002E00F0EB800027C6E9E9
:100A8800000138463946BDE8F087B3FA83F7002FEE
:100A980047D18B4202D3824200F2FA80841A61EB7A
:100AA800030301209846002EE0D0C6E90048DDE7A0
:100AB80002B9FFDEB2FA82F2002A40F08F80491BA9
:100AC8004FEA154E1FFA85F80127B1FBFEFC230CEF
:100AD8000EFB1C1143EA014308FB0CF1994207D9AC
:100AE800EB180CF1FF3002D2994200F2CD80844617
:100AF800591AA3B2B1FBFEF00EFB101443EA0444EA
:100B080008FB00F8A04507D92C1900F1FF3302D2E1
:100B1800A04500F2B6801846A4EB080440EA0C4051
:100B28009FE7C7F1200CBB4022FA0CFE4EEA030EE9
:100B380001FA07F420FA0CF521FA0CF34FEA1E48E3
:100B48002543B3FBF8F92C0C08FB19331FFA8EFA6E
:100B580044EA034309FB0AF49C4202FA07F200FA4A
:100B680007F10BD91EEB030309F1FF3080F08780F2
:100B78009C4240F28480A9F1020973441B1BADB268
:100B8800B3FBF8F008FB103345EA034400FB0AFA0C
:100B9800A24508D91EEB040400F1FF336BD2A2452D
:100BA80069D90238744440EA0940A0FB0289A4EBE1
:100BB8000A044C45C2464B4654D351D0002E69D046
:100BC800B1EB0A0564EB030404FA0CFCFD40FC409D
:100BD8004CEA0505C6E90054002747E7C2F120039F
:100BE80020FA03F7954001FA02F021FA03F34FEADD
:100BF800154E3843010CB3FBFEF71FFA85F80EFBC0
:100C0800173341EA034107FB08F38B4204FA02F465
:100C180007D9691807F1FF3C2FD28B422DD9023F23
:100C28002944CB1A81B2B3FBFEF00EFB103341EA24
:100C3800034100FB08F38B4207D9691800F1FF3C18
:100C480017D28B4215D902382944C91A40EA0747F6
:100C58003BE73746304609E70746E7E61846FBE62E
:100C68004145ABD2B8EB020A69EB0E0201381346D4
:100C7800A4E76046E9E7184695E76746D1E7814665
:100C88007CE702382C4447E7ACF1020C2B442FE7F1
:100C9800384608E73746E9E6704700BF10B504460E
:100CA8000E4B18784FF47A73B3FBF0F30C4A1068C4
:100CB800B0FBF3F000F030FB68B90F2C01D901202C
:100CC8000AE0002221464FF0FF3000F0E3FA034B20
:100CD8005C60002000E0012010BD00BF0000002083
:100CE8001800002008B50B4B1A6842F400721A600D
:100CF8001A6842F480621A601A6842F480721A60B4
:100D0800032000F0B5FA0020FFF7C8FF02F090FAC0
:100D1800002008BD003C0240034A1168034B1B78C1
:100D28000B441360704700BF6400002000000020DF
:100D3800014B1868704700BF6400002038B50446AE
:100D4800FFF7F6FF0546B4F1FF3F02D0044B1B78CE
:100D58001C44FFF7EDFF401BA042FAD338BD00BF8B
:100D6800000000204A4B5A6822F440325A605A6800
:100D780041680A435A600268536823F480735360D9
:100D880002685368016943EA0123536002685368A3
:100D980023F0407353600268536881680B435360C3
:100DA8000268936823F40063936002689368C168DB
:100DB8000B439360826A374B9A424BD00268936820
:100DC80023F07063936002689368816A0B439360B1
:100DD8000268936823F04053936002689368C16A7D
:100DE8000B4393600268936823F0020393600268E0
:100DF8009368017E43EA4103936090F82030002B0A
:100E080033D10268536823F4006353600268D36ADD
:100E180023F47003D3620168CB6AC269013A43EADA
:100E28000253CB620268936823F4007393600268EC
:100E3800936890F8301043EA4123936002689368FE
:100E480023F48063936002689368416943EA8123CD
:100E5800936070470268936823F070639360026838
:100E6800936823F040539360BCE70268536843F4E7
:100E7800006353600268536823F460435360016859
:100E88004B68426A013A43EA42334B60BEE700BF0F
:100E9800002301400100000F38B310B50446036C6D
:100EA80043B1236C13F0100F0BD00120002384F8FA
:100EB8003C3010BD02F0D8F90023636484F83C305C
:100EC800EFE7236C23F4885323F0020343F0020373
:100ED80023642046FFF746FF00206064236C23F05C
:100EE800030343F001032364E0E701207047000097
:100EF80082B00023019390F83C30012B7DD0012370
:100F080080F83C3003689A6812F0010F13D19A6890
:100F180042F001029A603E4B1B683E4AA2FB032343
:100F28009B0C03EB4303019302E0019B013B0193FC
:100F3800019B002BF9D10268936813F0010F5ED072
:100F4800036C23F4E06323F0010343F48073036428
:100F5800536813F4806F05D0036C23F4405343F4B3
:100F680080530364036C13F4805F1BD0436C23F03D
:100F780006034364002380F83C306FF022031360BB
:100F8800254B5B6813F01F0F27D10368234A934250
:100F980019D002F58072934207D0214A93420BD0B0
:100FA80000202DE000234364E4E702F50072526854
:100FB80012F01F0F07D0F0E702F58072526802F0B6
:100FC8001F020F2A1ED89A6812F0405F1CD19A6837
:100FD80042F080429A60002012E003680F4A934270
:100FE80001D000200CE09A6812F0405F0ED19A6898
:100FF80042F080429A60002002E0022000E00020D7
:1010080002B070470020FBE70020F9E70020F7E76F
:101018001800002083DE1B4300230140002001400C
:101028000022014003689A6812F4806F03D09B681D
:1010380013F4807F1CD170B50D460446FFF778FE87
:10104800064623681A6812F0020F1AD1B5F1FF3F5D
:10105800F7D025B1FFF76CFE801BA842F1D9236CAD
:1010680043F004032364002384F83C3003202DE07C
:10107800036C43F020030364002380F83C30012014
:1010880070476FF012021A60236C43F400732364F4
:1010980023689A6812F0405F17D1227EBAB9DA6ADB
:1010A80012F4700F03D09B6813F4806F11D1236C76
:1010B80023F480732364236C13F4805F0BD1236CB7
:1010C80043F001032364002000E0002070BD0020ED
:1010D800FCE70020FAE70020F8E70368D86C7047BF
:1010E80030B482B00023019390F83C30012B00F01B
:1010F800B780012380F83C300B68092B3ED905687E
:10110800EA689BB203EB43031E3B072404FA03F38C
:1011180022EA0303EB600568EA688C680B8803EB36
:1011280043031E3B04FA03F31343EB604B68062B9F
:101138003AD805686A6B03EB8303053B1F2404FA5E
:1011480003F322EA03036B6305686A6B4B6803EBDE
:101158008303053B0C8804FA03F313436B630268AB
:10116800404B9A4250D002683E4B9A4255D00023D9
:1011780080F83C30184602B030BC704705682A69D0
:101188009BB203EB4303072404FA03F322EA0303A5
:101198002B6105682A698C680B8803EB430304FA02
:1011A80003F313432B61C1E70C2B16D805682A6B90
:1011B80003EB8303233B1F2404FA03F322EA03030C
:1011C8002B6305682A6B4B6803EB8303233B0C886E
:1011D80004FA03F313432B63C1E70568EA6A03EBD8
:1011E8008303413B1F2404FA03F322EA0303EB625F
:1011F8000568EA6A4B6803EB8303413B0C8804FAF1
:1012080003F31343EB62AAE70B68122BABD1164A20
:10121800536843F480035360A5E70B68103B012B28
:10122800A5D8114A536843F4000353600B68102B88
:101238009DD10E4B1B6802F1467202F52E3202F266
:101248008332A2FB03239B0C03EB83035A00019216
:1012580002E0019B013B0193019B002BF9D186E73A
:10126800022088E7002001400023014018000020E8
:10127800074AD36823F4E0631B041B0C000200F444
:10128800E060184340F0BF6040F40030D060704721
:1012980000ED00E030B4174BDB68C3F30223C3F161
:1012A8000704042C28BF04241D1D062D18D9033B50
:1012B8004FF0FF3505FA04F421EA0401994005FAD4
:1012C80003F322EA0303194300280BDB0901C9B21F
:1012D80000F1604000F5614080F8001330BC7047B1
:1012E8000023E5E700F00F000901C9B2024B1954C9
:1012F800F4E700BF00ED00E014ED00E0002807DB94
:1013080000F01F02400901239340024A42F82030AE
:10131800704700BF00E100E00138B0F1807F0AD2D9
:10132800064B5860064AF02182F823100020986086
:1013380007221A6070470120704700BF10E000E0E4
:1013480000ED00E070B110B50446037933B1022313
:101358002371002020610123237110BD437101F026
:10136800B7FFF4E7012070474379012B31D010B45F
:101378000123437102220271046822688B401343DF
:101388002360B1B902681168136803F0380311F0DB
:10139800040F01D0382B07D00123037100234371B8
:1013A80018465DF8044B7047536843F001035360D7
:1013B800F2E702681168136803F4601311F4802FD0
:1013C800EAD0B3F5601FE7D1536843F002035360D6
:1013D800E2E7022070474379012B1FD070B4012542
:1013E8004571022303710668336840F6FE74944021
:1013F80023EA04040B6849680B4393402343336092
:1014080004682368C02101FA02F223EA020222607A
:10141800057100234371184670BC7047022070475D
:1014280010B483B0002401940068019051B101996F
:101438000A4414320192019A1360002003B05DF847
:10144800044B704701990A4408320192F3E70000FF
:1014580000230F2B00F2D780F0B482B039E00722C6
:1014680000E00022B2403A430234674E46F8242096
:10147800664A1468EA4302EA04064F6817F4803F94
:1014880001D045EA0406614C2660646802EA040655
:101498004F6817F4003F01D045EA04065B4C6660CC
:1014A800A46802EA04064F6817F4801F01D045EAD1
:1014B8000406564CA660E46822404E6816F4001FE5
:1014C80001D045EA0402514CE26001330F2B00F2CF
:1014D800978001229A400C6804EA0205AA42F4D1D6
:1014E8004C68022C01D0122C10D1DE08083650F8B6
:1014F80026C003F00704A7000F24BC402CEA040C04
:101508000C69BC4044EA0C0440F8264004685F00BB
:101518000326BE40F64306EA040C4C6804F00304B4
:10152800BC4044EA0C0404604C6804F1FF3CBCF184
:10153800010F03D9112C01D0122C10D1846806EAAE
:10154800040CCC68BC4044EA0C048460446824EA77
:1015580002024C68C4F300149C4014434460C268FF
:1015680016408A68BA403243C2604A6812F0805F07
:10157800ABD000220192264A546C44F4804454644F
:10158800526C02F480420192019A9C08A61C1E4AE1
:1015980052F8267003F0030296000F22B24027EAA1
:1015A80002071C4A90423FF45CAF02F58062904209
:1015B8001AD002F58062904218D002F580629042FB
:1015C80016D002F58062904214D002F580629042F3
:1015D80012D002F58062904210D002F580629042EB
:1015E8003FF43DAF08223DE701223BE7022239E7FD
:1015F800032237E7042235E7052233E7062231E7DD
:1016080002B0F0BC7047704700380140003C014010
:1016180000380240000002400369194201D100204D
:1016280070470120704712B90904816170478161D0
:1016380070470000002800F0BB8170B582B00446F6
:10164800036813F0010F3BD0A74B9B6803F00C0312
:10165800042B2CD0A44B9B6803F00C03082B21D03F
:101668006368B3F5803F4FD0B3F5A02F52D09E4B9F
:101678001A6822F480321A601A6822F480221A60EA
:101688006368002B50D0FFF753FB0546964B1B6849
:1016980013F4003F14D1FFF74BFB401B6428F5D926
:1016A80003208AE1904B5B6813F4800FD8D08E4BEF
:1016B8001B6813F4003F03D06368002B00F07A81A5
:1016C800236813F0020F55D0874B9B6813F00C0F5B
:1016D8003ED0854B9B6803F00C03082B33D0E3689E
:1016E800002B68D0814B01221A60FFF721FB0546C9
:1016F8007D4B1B6813F0020F54D1FFF719FB401BF9
:101708000228F5D9032058E1774A136843F4803357
:101718001360B5E7744B1A6842F480221A601A689D
:1017280042F480321A60ABE7FFF702FB05466E4BC6
:101738001B6813F4003FC3D0FFF7FAFA401B642874
:10174800F5D9032039E1684B5B6813F4800FC6D1E3
:10175800654B1B6813F0020F04D0E368012B01D01E
:1017680001202AE1604A136823F0F803216943EA5B
:10177800C1031360236813F0080F40D0636963B393
:101788005B4B01221A60FFF7D3FA0546564B5B6F95
:1017980013F0020F33D1FFF7CBFA401B0228F5D91B
:1017A80003200AE1504A136823F0F803216943EA49
:1017B800C1031360DEE74D4B00221A60FFF7B8FA49
:1017C8000546494B1B6813F0020FD3D0FFF7B0FA58
:1017D800401B0228F5D90320EFE0454B00221A6090
:1017E800FFF7A6FA0546404B5B6F13F0020F06D0D1
:1017F800FFF79EFA401B0228F5D90320DDE0236895
:1018080013F0040F79D0384B1B6C13F0805F33D181
:1018180000230193344B1A6C42F080521A641B6CFB
:1018280003F080530193019B0125324B1B6813F48D
:10183800807F23D0A368012B34D0052B38D02A4BC6
:101848001A6F22F001021A671A6F22F004021A674F
:10185800A368002B36D0FFF76BFA0646224B1B6FA6
:1018680013F0020F48D1FFF763FA801B41F2883367
:101878009842F3D90320A0E00025D6E71D4A136853
:1018880043F480731360FFF753FA0646194B1B683D
:1018980013F4807FCED1FFF74BFA801B0228F5D9CD
:1018A80003208AE0104A136F43F001031367CFE760
:1018B8000D4B1A6F42F004021A671A6F42F00102C8
:1018C8001A67C5E7FFF734FA0646074B1B6F13F094
:1018D800020F11D0FFF72CFA801B41F2883398428F
:1018E800F3D9032069E000BF0038024000004742F6
:1018F800800E474200700040E5B9A369002B5BD019
:10190800304A926802F00C02082A58D0022B17D0ED
:101918002D4B00221A60FFF70BFA0446294B1B686F
:1019280013F0007F42D0FFF703FA001B0228F5D915
:10193800032042E0234A136C23F080531364DCE74E
:10194800214B00221A60FFF7F3F905461D4B1B686F
:1019580013F0007F06D0FFF7EBF9401B0228F5D9FA
:1019680003202AE0E369226A1343626A43EA821386
:10197800A26A5208013A43EA0243E26A43EA02636E
:10198800104A5360104B01221A60FFF7D1F9044640
:101998000C4B1B6813F0007F06D1FFF7C9F9001B39
:1019A8000228F5D9032008E0002006E0002004E022
:1019B80001207047012000E0002002B070BD012026
:1019C800FBE700BF0038024060004742324B9B688B
:1019D80003F00C03042B5CD0082B01D02F48704770
:1019E8002DE9F04B2C4B5A6802F03F025B6813F468
:1019F800800F2BD0284B5B68C3F388131E46002743
:101A08005C010025E41A65EB0705A90141EA946128
:101A1800A001001B61EB0501CB0043EA5073C40031
:101A2800A01943EB07014B0243EAD0534402204676
:101A380019460023FEF7B2FF174B5B68C3F3014357
:101A480001335B00B0FBF3F0BDE8F08B124B5B6831
:101A5800C3F388131E4600275C010025E41A65EBD2
:101A68000705A90141EA9461A001001B61EB05018A
:101A7800CB0043EA5073C400A01943EB07018B0263
:101A880043EA90538402204619460023FEF786FF56
:101A9800D2E70348704700BF003802400024F40032
:101AA80000127A00002800F09D8070B504464F4B64
:101AB8001B6803F00F038B4209D2CBB24B4A137059
:101AC800136803F00F038B4201D0012070BD236817
:101AD80013F0020F17D013F0040F04D0444A936890
:101AE80043F4E0539360236813F0080F04D0404A8E
:101AF800936843F4604393603D4A936823F0F0038E
:101B0800A068034393600D46236813F0010F32D099
:101B18006368012B21D09A1E012A25D9344A1268FC
:101B280012F0020F60D032498A6822F00302134390
:101B38008B60FFF7FDF806462D4B9B6803F00C03FE
:101B48006268B3EB820F16D0FFF7F2F8801B41F200
:101B580088339842F0D90320B8E7254A126812F46E
:101B6800003FE0D10120B1E7214A126812F0007F5E
:101B7800D9D10120AAE71D4B1B6803F00F03AB4224
:101B880009D9EAB2194B1A701B6803F00F03AB426C
:101B980001D001209AE7236813F0040F06D0144AF5
:101BA800936823F4E053E1680B439360236813F0D0
:101BB800080F07D00E4A936823F46043216943EA6B
:101BC800C1039360FFF702FF094B9B68C3F303133C
:101BD800084AD35CD840084B18600020FFF75EF82D
:101BE800002073E70120704701206FE7003C0240A6
:101BF8000038024090CD00081800002030B4036A75
:101C080023F001030362056A4268846924F07304BF
:101C18000B681C4325F002058B682B43104DA84226
:101C280003D005F58065A84205D123F00803CD68E7
:101C38002B4323F004030A4DA84203D005F5806521
:101C4800A84205D122F440724D6915438A692A4396
:101C5800426084614A684263036230BC704700BFD7
:101C68000000014030B4036A23F480730362036AFE
:101C78004268C46924F073040D682C4323F400738C
:101C88008D6843EA0523124DA84203D005F5806507
:101C9800A84206D123F40063CD6843EA052323F460
:101CA80080630B4DA84203D005F58065A84207D193
:101CB80022F440524D6942EA05128D6942EA051242
:101CC8004260C4614A68C263036230BC704700BFA7
:101CD8000000014030B4036A23F480530362036AAE
:101CE8004468C26922F4E6420D6842EA052223F4F8
:101CF80000538D6843EA0533094DA84203D005F522
:101D08008065A84204D124F480444D6944EA8514CE
:101D18004460C2614A680264036230BC704700BF15
:101D28000000014010B4036A046A24F0010404624C
:101D3800846924F0F00444EA021223F00A030B43F6
:101D4800826103625DF8044B704710B4036A23F0A4
:101D5800100303628469036A24F4704444EA02327B
:101D680023F0A00343EA0113826103625DF8044B88
:101D78007047836823F07003194341F007018160BD
:101D880070470268D36843F00103D3600268936820
:101D980003F00703062B03D0136843F00103136015
:101DA800002070477047704770477047704710B5FC
:101DB800044603681A6912F0020F11D0DA6812F0AB
:101DC800020F0DD06FF002021A6101230377036836
:101DD8009B6913F0030F70D0FFF7E6FF002323770A
:101DE80023681A6912F0040F12D0DA6812F0040F8F
:101DF8000ED06FF004021A610223237723689B69CF
:101E080013F4407F5FD02046FFF7CEFF00232377EF
:101E180023681A6912F0080F12D0DA6812F0080F56
:101E28000ED06FF008021A61042323772368DB6958
:101E380013F0030F4ED02046FFF7B6FF0023237799
:101E480023681A6912F0100F12D0DA6812F0100F16
:101E58000ED06FF010021A61082323772368DB691C
:101E680013F4407F3DD02046FFF79EFF00232377E1
:101E780023681A6912F0010F03D0DA6812F0010F13
:101E880036D123681A6912F0800F03D0DA6812F08D
:101E9800800F34D123681A6912F0400F03D0DA6832
:101EA80012F0400F32D123681A6912F0200F03D0C4
:101EB800DA6812F0200F30D110BDFFF774FF20460A
:101EC800FFF773FF8AE72046FFF76DFF2046FFF70D
:101ED8006CFF9BE72046FFF766FF2046FFF765FF8C
:101EE800ACE72046FFF75FFF2046FFF75EFFBDE740
:101EF8006FF001021A61204600F032FFC1E76FF06F
:101F080080021A61204600F019FAC3E76FF0400218
:101F18001A612046FFF74AFFC5E76FF020021A61F1
:101F2800204600F00AFAC7E70368304A904212D008
:101F3800B0F1804F0FD0A2F57C4290420BD002F551
:101F48008062904207D002F58062904203D002F589
:101F58007842904203D123F070034A681343234A1E
:101F680090422AD0B0F1804F27D0A2F57C4290420F
:101F780023D002F5806290421FD002F58062904221
:101F88001BD002F57842904217D002F57052904269
:101F980013D002F5806290420FD002F58062904221
:101FA8000BD0A2F59832904207D002F58062904299
:101FB80003D002F58062904203D123F44073CA68CB
:101FC800134323F080034A69134303608B68C36299
:101FD8000B688362054B984203D003F580639842EF
:101FE80001D10B690363012343617047000001407D
:101FF800A8B110B5044690F83D305BB1022384F8CF
:102008003D30211D2068FFF78FFF012384F83D3004
:10201800002010BD80F83C3001F08EF9EEE7012079
:102028007047A8B110B5044690F83D305BB1022363
:1020380084F83D30211D2068FFF776FF012384F8DE
:102048003D30002010BD80F83C30FFF7ABFEEEE7D6
:102058000120704730B4036A23F010030362036A57
:102068004468826922F4E6420D6842EA052223F0B8
:1020780020038D6843EA0513114DA84203D005F5E6
:102088008065A84206D123F08003CD6843EA051392
:1020980023F040030A4DA84203D005F58065A84205
:1020A80007D124F440644D6944EA85048D6944EA03
:1020B8008504446082614A688263036230BC704769
:1020C8000000014038B590F83C30012B66D00D4631
:1020D8000446012380F83C30022380F83D300C2A66
:1020E8001AD8DFE802F00719191920191919341933
:1020F800191947000068FFF781FD2268936943F0CA
:10210800080393612268936923F0040393612268AA
:10211800936929690B439361012384F83D300020BA
:1021280084F83C0038BD0068FFF794FF2268936983
:1021380043F4006393612268936923F48063936195
:1021480022689369296943EA01239361E4E70068F7
:10215800FFF788FD2268D36943F00803D36122683A
:10216800D36923F00403D3612268D36929690B4337
:10217800D361D1E70068FFF7ADFD2268D36943F466
:102188000063D3612268D36923F48063D361226832
:10219800D369296943EA0123D361BDE70220C1E776
:1021A80010B4846824F47F4442EA03230B43234396
:1021B80083605DF8044B704790F83C30012B66D083
:1021C80010B50446012380F83C30022380F83D30E6
:1021D8000268936823F47F4323F0770393600B68C6
:1021E800402B4AD013D9602B3DD01ED9702B28D054
:1021F800B3F5005F30D1CB684A6889680068FFF79B
:10220800CFFF2268936843F48043936024E0102B47
:1022180006D004D9202B03D0302B01D01CE0DBB929
:1022280019462068FFF7A5FD16E0502B14D1CA689F
:1022380049680068FFF776FD50212068FFF799FD8F
:102248000AE0CB684A6889680068FFF7A9FF226836
:10225800936843F077039360012384F83D300020AE
:1022680084F83C0010BDCA6849680068FFF76DFD36
:1022780060212068FFF77DFDEEE7CA6849680068BD
:10228800FFF750FD40212068FFF773FDE4E70220C7
:10229800704710B401F01F01012303FA01F4036A27
:1022A80023EA04030362036A8A40134303625DF866
:1022B800044B704710B5044601220068FFF7E9FF98
:1022C80023680B4A934203D002F58062934203D1FC
:1022D8005A6C42F400425A642268936803F0070378
:1022E800062B03D0136843F001031360002010BDD0
:1022F8000000014090F83C30012B1CD070B401263E
:1023080080F83C60022380F83D3002685568936885
:1023180025F070050C682C4323F080054B682B438F
:1023280054600268936080F83D60002380F83C3078
:10233800184670BC7047022070477047704700000D
:1023480038B5041E0CDC24B9BA4B1B68002B00F00E
:10235800428224B9B74B1B68012B00F0A58238BD17
:102368000122FF21B448FFF75EF9B44D00224FF473
:1023780080512846FFF757F900224FF400512846AC
:10238800FFF751F900224FF480412846FFF74BF937
:1023980000224FF400412846FFF745F901224FF487
:1023A80080512846FFF73FF9A54B1B68A54A1360E3
:1023B800072B77D8DFE803F004374049525B646D98
:1023C80000223F219C48FFF72EF90120FEF7B6FCBA
:1023D800012C00F38480022C00F30481032CB2DD6D
:1023E8000122FF219448FFF71EF9944D00224FF473
:1023F80080412846FFF717F901224FF4004128468B
:10240800FFF711F98E4BDB688F4A1360072B00F238
:10241800C581DFE813F07B0184018D0196019F01DE
:10242800A801B101BA01002206218348FFF7FBF891
:102438000120FEF783FCCBE700225B217E48FFF7F3
:10244800F2F80120FEF77AFCC2E700224F217A4811
:10245800FFF7E9F80120FEF771FCB9E700226621D1
:102468007548FFF7E0F80120FEF768FCB0E70022A6
:102478006D217148FFF7D7F80120FEF75FFCA7E749
:1024880000227D216C48FFF7CEF80120FEF756FCAC
:102498009EE7002207216848FFF7C5F80120FEF7EC
:1024A8004DFC95E70120FEF749FC644D00224FF4EE
:1024B80080512846FFF7B7F800224FF4005128460C
:1024C800FFF7B1F800224FF480412846FFF7ABF838
:1024D80000224FF400412846FFF7A5F878E70122CB
:1024E800FF215548FFF79FF8544D00224FF48051C3
:1024F8002846FFF798F801224FF400512846FFF7C5
:1025080092F84F4B5B68514A1360072B4DD8DFE8B0
:1025180003F0040D161F28313A4300223F21464894
:10252800FFF781F80120FEF709FC54E70022062195
:102538004148FFF778F80120FEF700FC4BE700223E
:102548005B213D48FFF76FF80120FEF7F7FB42E7F4
:1025580000224F213848FFF766F80120FEF7EEFB0E
:1025680039E7002266213448FFF75DF80120FEF7BD
:10257800E5FB30E700226D212F48FFF754F80120D2
:10258800FEF7DCFB27E700227D212B48FFF74BF8FD
:102598000120FEF7D3FB1EE7002207212648FFF79C
:1025A80042F80120FEF7CAFB15E70120FEF7C6FB3B
:1025B800224D00224FF480512846FFF734F80022BC
:1025C8004FF400512846FFF72EF800224FF48041BF
:1025D8002846FFF728F800224FF400412846FFF765
:1025E80022F8F8E60122FF211348FFF71CF8134DE3
:1025F80001224FF480412846FFF715F800224FF4D6
:1026080000512846FFF70FF80D4B9B68104A1360DE
:10261800072B5ED8DFE803F0041E273039424B54FD
:1026280000223F210448FEF7FEFF0120FEF786FB4B
:10263800D4E600BF3C000020000C02400004024029
:1026480070000020840000206C0000208000002022
:102658006800002000220621BB48FEF7E4FF0120A5
:10266800FEF76CFBBAE600225B21B748FEF7DBFFFA
:102678000120FEF763FBB1E600224F21B248FEF7C6
:10268800D2FF0120FEF75AFBA8E600226621AE48D9
:10269800FEF7C9FF0120FEF751FB9FE600226D21DE
:1026A800A948FEF7C0FF0120FEF748FB96E6002286
:1026B8007D21A548FEF7B7FF0120FEF73FFB8DE619
:1026C80000220721A048FEF7AEFF0120FEF736FBE7
:1026D80084E60120FEF732FB9C4D00224FF4805126
:1026E8002846FEF7A0FF00224FF400512846FEF7C7
:1026F8009AFF00224FF480412846FEF794FF0022FB
:102708004FF400412846FEF78EFF67E600223F217E
:102718008D48FEF788FF0120FEF710FB13E6002224
:1027280006218948FEF77FFF0120FEF707FB0AE62E
:1027380000225B218448FEF776FF0120FEF7FEFAAF
:1027480001E600224F218048FEF76DFF0120FEF7C9
:10275800F5FAF8E5002266217B48FEF764FF0120C0
:10276800FEF7ECFAEFE500226D217748FEF75BFFF4
:102778000120FEF7E3FAE6E500227D217248FEF724
:1027880052FF0120FEF7DAFADDE5002207216E4844
:10279800FEF749FF0120FEF7D1FAD4E50120FEF744
:1027A800CDFA6A4D00224FF480512846FEF73BFFD0
:1027B80000224FF400512846FEF735FF00224FF45F
:1027C80080412846FEF72FFF00224FF4004128469B
:1027D800FEF729FFB7E55C4D0122FF212846FEF7E9
:1027E80022FF04F1804404F5013400224FF48041B3
:1027F8002046FEF718FF01224FF480512046FEF7CD
:1028080012FF00223F212846FEF70DFF0120FEF7A8
:1028180095FA0122FF212846FEF705FF00224FF412
:1028280080512046FEF7FFFE01224FF4005120465A
:10283800FEF7F9FE002271212846FEF7F4FE01207A
:10284800FEF77CFA0122FF212846FEF7ECFE002263
:102858004FF400512046FEF7E6FE01224FF4804176
:102868002046FEF7E0FE002271212846FEF7DBFE37
:102878000120FEF763FA00224FF480512046FEF74C
:10288800D2FE00224FF400512046FEF7CCFE002273
:102898004FF480412046FEF7C6FE00224FF4004167
:1028A8002046FEF7C0FE5AE5274D0122FF212846A3
:1028B800FEF7B9FE04F1804404F5013400224FF418
:1028C80000512046FEF7AFFE01224FF4805120460A
:1028D800FEF7A9FE00223F212846FEF7A4FE0120AC
:1028E800FEF72CFA0122FF212846FEF79CFE002263
:1028F8004FF480512046FEF796FE01224FF4005116
:102908002046FEF790FE002237212846FEF78BFE70
:102918000120FEF713FA00224FF480512046FEF7FB
:1029280082FE00224FF400512046FEF77CFE002272
:102938004FF480412046FEF776FE00224FF4004116
:102948002046FEF770FE0AE5000C02400004024033
:10295800F0B58BB000240594069407940894099464
:102968000094334B1A6B42F080021A631A6B02F020
:1029780080020092009A01941A6B42F001021A63D5
:102988001A6B02F001020192019A02941A6B42F04A
:1029980010021A631A6B02F010020292029A039450
:1029A8001A6B42F002021A631A6B02F002020392D7
:1029B800039A04941A6B42F008021A631B6B03F023
:1029C80008030493049B1B4D22464FF4704128468C
:1029D800FEF729FE184E2246FF213046FEF723FE59
:1029E8004FF4FF43059306940223079305A9134860
:1029F800FEF72EFD4FF470430593012706970794C1
:102A0800089405A92846FEF723FDFF23059306979A
:102A18000794089405A93046FEF71AFD102305937C
:102A28000694079405A92846FEF712FD0BB0F0BDE1
:102A38000038024000040240000C0240001002402E
:102A480030B587B00024029403940494059400944C
:102A580001940E4D0E4B2B604FF403736B60AC600A
:102A68000923EB602C61AC612846FFF7C1FA4FF4EB
:102A78008053029302A92846FFF79EFB0094019415
:102A880069462846FFF736FC07B030BDF40300203E
:102A98000004004030B58FB000240A940B940C94C5
:102AA8000D94089409940194029403940494059451
:102AB80006940794154D164B2B606C60AC60D123BF
:102AC800EB602C61AC612846FFF792FA4FF4805313
:102AD8000A930AA92846FFF76FFB2846FFF7A1FAD1
:102AE8000894099408A92846FFF704FC6023019379
:102AF800029403940594224601A92846FFF7E2FAB6
:102B0800284600F053FC0FB030BD00BFB0030020D2
:102B18000008004070B584B0002500950195029525
:102B28000395104C104B23604FF480336360A5600D
:102B38002561257684F82050E5620C4BA362E56098
:102B48000126E66184F8305066612046FEF7A4F954
:102B580000960196029569462046FEF7C1FA04B030
:102B680070BD00BF34040020002001400100000FA8
:102B780030B583B0002400940194074D074B2B60B7
:102B88002846FEF7DFFB0094019422466946284652
:102B9800FEF721FC03B030BD7C0400200074004027
:102BA80010B582B02C4B1B68012B07D12A4B5A68F1
:102BB80042F6D5339A420FDC02B010BD264B0122F3
:102BC8001A6000225A60254C204600F0D9FC24499E
:102BD800204600F059FCE9E72149204800F054FC60
:102BE8001D4B00225A609B685BB1012B16D01A4B13
:102BF800DB68322B20D0002BDED1174B00229A60E5
:102C0800DAE7154CFF2300939FED0F0BE16813489B
:102C180000F091FCE3680133E360E8E70E4C002222
:102C280000929FED0B0B1346E1680C4800F083FC03
:102C3800E368013BE360DAE7074B01229A6031223F
:102C4800DA60B9E7AFF30080000000000000F03F51
:102C5800000000000000000040000020900000205C
:102C68009004002010B5194B1B68022B11D1174B8B
:102C78005A68174B9A420BDD144B9B68BBB1012B6A
:102C88001CD01449144800F0FFFB104B00225A6076
:102C980010BD0E4B02221A6000225A600E4C2046CC
:102CA80000F06EFC0B49204600F0EEFBDFE70A4817
:102CB80000F0A0FC054B01229A60E2E7064800F00C
:102CC80073FC024B00229A60DBE700BF4000002043
:102CD800451F0600900400209000002010B51C4BF2
:102CE8001B68032B0DD11A4B5A681A4B9A4207DD01
:102CF800174B9B689BB1012B1DD0154B00225A60C6
:102D080010BD134B03221A6000225A60124C204651
:102D180000F036FC1149204600F0B6FBE3E70E4C04
:102D2800204600F015FC0D49204600F0ADFB084B8D
:102D380001229A60E1E7084C204600F021FC07498F
:102D4800204600F0A1FB024B00229A60D5E700BFA5
:102D5800400000200512030090000020900400208D
:102D680010B504460268324B9A4204D0314B1B69B5
:102D7800012B36D010BD2F4B5B68B3F5966F09DA7F
:102D88002D4AD25C12B92A4A1B2151632A4AD25CC5
:102D9800012A1CD0A3F59662152A02D8244A0021DC
:102DA8005163244A01335360136913B9234A1268E3
:102DB8008AB11BB9214A1268012A0FD0012BD5D13B
:102DC8001E4B1B68012BD1D1FFF788FFCEE7184AAD
:102DD80065215163DEE7FFF7E3FEC7E7FFF742FF30
:102DE800C4E7164B1B68012BC4D12268144B9A42C6
:102DF800C0D1104B5B6949F28162934203DD0D4BF0
:102E080000225A61B6E70B4C0E4AD05CFDF72AFB4C
:102E1800D4E90623FDF790FBFDF7A0FD0346002249
:102E280011460948FEF7FCFA636901336361A1E7BB
:102E38000008004040000020900400203C000020D2
:102E4800000400400C3700087C04002030B595B021
:102E58003022002108A800F041FC002403940494C7
:102E680005940694079401941B4B1A6C42F0805207
:102E78001A641B6C03F080530193019B0294174B57
:102E88001A6842F480421A601B6803F48043029374
:102E9800029B012308934FF48033099302250E9572
:102EA8004FF480030F9304231093A82211921295D4
:102EB800139308A8FEF7BEFB0F230393049505940C
:102EC8004FF4A05306934FF480530793052103A8AA
:102ED800FEF7E8FD15B030BD003802400070004034
:102EE80010B5FDF7FFFEFFF7B1FFFFF731FDFFF764
:102EF800D1FDFFF70FFEFFF73BFEFFF7A1FDAB4C3F
:102F08002046FEF73EFF00212046FFF7D3F9A848E8
:102F1800FEF737FF0021A748FEF726FA50E0802188
:102F2800A548FEF779FB00286DD14FF48071A248BF
:102F3800FEF772FB00287ED14FF400719E48FEF721
:102F48006BFB002840F08F804FF480619A48FEF7B1
:102F580063FB002840F09F804FF400619648FEF71D
:102F68005BFB002840F0AF804FF480519248FEF799
:102F780053FB002840F0BF804FF400518E48FEF705
:102F88004BFB002840F0CF804FF480418A48FEF781
:102F980043FB002840F0DF80884B1B6A042B00F0BD
:102FA800F480874C2046FDF7A3FF0A212046FEF750
:102FB80039F8002800F01E81804B186AFFF7C0F925
:102FC80010218048FEF728FB0028A8D07E4B1B68FC
:102FD800012BA4D1794B01221A61A0E701337B4A66
:102FE8009342FBDD754A136A0021794840F82310A3
:102FF800784801600133136280216F48FEF70CFBAB
:103008000128F9D091E70023E9E701336F4A934299
:10301800FBDD6A490B6A01226D4840F823201344FE
:103028000B626C4B1A604FF480716348FEF7F4FA38
:103038000128F8D080E70023E8E70133634A934288
:10304800FBDD5E490B6A0222614840F82320013308
:103058000B62604B1A604FF400715748FEF7DCFAB8
:103068000128F8D070E70023E8E70133574A934274
:10307800FBDD52490B6A0322554840F823200133EF
:103088000B62544B1A604FF480614B48FEF7C4FA48
:103098000128F8D060E70023E8E701334B4A934260
:1030A800FBDD46490B6A0422494840F823200133D6
:1030B8000B62484B1A604FF400613F48FEF7ACFAC8
:1030C8000128F8D050E70023E8E701333F4A93424C
:1030D800FBDD3A490B6A05223D4840F823200133BD
:1030E8000B623C4B1A604FF480513348FEF794FA58
:1030F8000128F8D040E70023E8E70133334A934238
:10310800FBDD2E490B6A0622314840F823200133A3
:103118000B62304B1A604FF400512748FEF77CFAD7
:103128000128F8D030E70023E8E70133274A934223
:10313800FBDD22490B6A0722254840F8232001338A
:103148000B62244B1A604FF480411B48FEF764FA67
:103158000128F8D020E70023E8E700231E4A13607F
:10316800164A13621C4B1B68012B7FF41AAF164BCF
:103178001B68002B34D1144B01221A60164B002215
:103188001A600E4B00221A620BE70023032BE9DCBE
:103198000F4A52F82310114A52F823209142DCD1E9
:1031A8000D4A012111600B44F0E700BFB003002075
:1031B800F40300207C04002000100240400000209E
:1031C80034040020000402403C0000207F841E00DC
:1031D8007000002088000020F00300200800002074
:1031E800012BCED100230E4A13600E4A13610E4AFA
:1031F8001360C6E72046FDF770FF80B20B4B1880BE
:10320800FDF730F904A3D3E90023FDF795F9054B41
:10321800C3E90601D0E600BF9A9999999999473F61
:103228003C00002040000020F0030020400900205E
:1032380082B0002100910B4B5A6C42F480425A64D0
:103248005A6C02F480420092009A01911A6C42F082
:1032580080521A641B6C03F080530193019B02B0E7
:10326800704700BF0038024000B589B000230393BF
:103278000493059306930793026803F1804303F5CB
:1032880090339A4202D009B05DF804FB0021019105
:1032980003F58C335A6C42F480725A645A6C02F407
:1032A80080720192019A02911A6B42F001021A632C
:1032B8001B6B03F001030293029B02230393032376
:1032C800049303A90148FEF7C3F8DCE700000240B5
:1032D80000B589B0002303930493059306930793DD
:1032E8000268134B9A4202D009B05DF804FB002132
:1032F800019103F5E2331A6C42F000521A641A6C19
:1033080002F000520192019A02911A6B42F00102F6
:103318001A631B6B03F001030293029B10230393B0
:103328000323049303A90348FEF792F8DCE700BFE0
:10333800007400400000024000B583B00368184ADA
:10334800934205D0174A934216D003B05DF804FBA8
:1033580000220092144B196C41F0020119641B6C95
:1033680003F002030093009B01211D20FDF792FF4B
:103378001D20FDF7C3FFE8E7002101910A4B1A6CF5
:1033880042F004021A641B6C03F004030193019BCE
:103398000A461E20FDF77EFF1E20FDF7AFFFD4E78B
:1033A80000040040000800400038024000B587B023
:1033B80000230193029303930493059302680E4B31
:1033C8009A4202D007B05DF804FB002300930B4B30
:1033D8001A6B42F002021A631B6B03F0020300939C
:1033E800009B4023019302230293059301A90448FB
:1033F800FEF72EF8E6E700BF00080040003802405C
:10340800000402407047FEE7FEE7FEE7FEE770476C
:103418007047704708B5FDF77FFC08BD08B502483E
:10342800FEF7C5FC08BD00BFF403002008B502483C
:10343800FEF7BDFC08BD00BFB00300200F49D1F85E
:10344800883043F47003C1F888300D4B1A6842F095
:1034580001021A60002098601A6822F0847222F42F
:1034680080321A60074A5A601A6822F480221A6069
:10347800D8604FF000638B60704700BF00ED00E03C
:1034880000380240103000242DE9F0472DED028B62
:1034980007460D46002634461EE009F001022A556B
:1034A8004FEA590901340133072BF6DD002306E002
:1034B80008F001022A554FEA580801340133072B56
:1034C800F6DD002305E000F001022A55400801342A
:1034D8000133072BF7DD0136312E28DC330107EBEA
:1034E800030A9AED028BF85CFCF7BCFF53EC182B2F
:1034F800FDF722F8FDF732FA5FFA80F99AF8010031
:10350800FCF7B0FF53EC182BFDF716F8FDF726FA79
:103518005FFA80F89AF80200FCF7A4FF53EC182B26
:10352800FDF70AF8FDF71AFAC0B20023BCE7BDECB4
:10353800028BBDE8F08710B4090144184254637047
:103548009DF80430A37084ED020B5DF8044B7047BE
:103558000023312B10DC30B41C0102190021015565
:10356800FF24547091700024044DC2E902450133D0
:10357800312BF1DD30BC7047704700BF0000F03FD1
:103588000023312B0FDC30B41C0102190021015536
:103598005170917000240025C2E902450133312B96
:1035A800F2DD30BC704770470023312B1FDC30B48C
:1035B8000CE01C0102190021015551709170002482
:1035C8000025C2E902450133312B0EDC13F0010F4F
:1035D800EFD11C010219002101555170FF21917092
:1035E8000024034DC2E90245EDE730BC704770473F
:1035F8000000F03F0023312B1FDC30B40CE01C012D
:103608000219002101555170917000240025C2E96A
:1036180002450133312B0EDC13F0010FEFD01C01F2
:103628000219002101555170FF2191700024034DAA
:10363800C2E90245EDE730BC704770470000F03F33
:10364800DFF834D0002103E00C4B5B5843500431C1
:103658000B480C4B42189A42F6D30B4A02E000235F
:1036680042F8043B094B9A42F9D3FFF7E7FE00F012
:1036780011F8FFF735FC704700000220B8CD0008AC
:10368800000000201C000020200000204409002029
:10369800FEE7000070B50D4E0D4CA41BA4100025CC
:1036A800A54209D10B4E0C4C00F020F8A41BA41025
:1036B8000025A54205D170BD56F82530984701353B
:1036C800EEE756F8253098470135F2E7B0CD000807
:1036D800B0CD0008B0CD0008B4CD000802440346C0
:1036E800934200D1704703F8011BF9E7F8B500BF12
:1036F800F8BC08BC9E467047F8B500BFF8BC08BCCB
:043708009E46704722
:10370C00524946467A96000057415645666D7420DC
:10371C001000000001000100803E0000803E00000F
:10372C00010008004C4953541A000000494E464F02
:10373C00495346540E0000004C61766635382E32E3
:10374C00372E313033006461746134960000808010
:10375C00808080808080808080808080808080805D
:10376C00808080808080808080808080808080804D
:10377C00808080808080808080808080808080803D
:10378C00808080808080808080808080808080802D
:104B3C008080808080808080808080808181818165
:104B4C0081818181818080808080807F7F80808056
:104B5C007F8081818181818181818080818182813D
:104B6C00807F7F808080808183828181807F7E7C3A
:104B7C0078777B7F807F7E8182807D7D838789862D
:104B8C0085837F7C7C7C7E7F808283888E8D8888E9
:104B9C008A89857B716C6D6A6D72777E807E7D8172
:104BAC00898C8F918B86807D7D7D7E7E8081868EAB
:104BBC008F8D91928C8A877E6E605F6366686F7B47
:104BCC007E7D87918D8C8B847F79777573757782D9
:104BDC008992988C89919A97928E858074665E5E84
:104BEC00656E767172818C8B868685848075737008
:104BFC006F717785929B9F8B80878F9390898C9315
:104C0C00886B6265696E74736E7E9695857D797A14
:104C1C007F72696C6C7A82878E9A9F8A757A94956A
:104C2C009A9E9D9D98765F5961666B6F676D7C94BB
:104C3C009791887A737171696E727582909AA19747
:104C4C00847B8C9B9A9F999C9C8C6A5C63656A6B39
:104C5C0064646A7D92A3AFA97D676462696E7176A4
:104C6C007F8DA1A696827C909EA09895989D967516
:104C7C00555F62636565686B7D8A99A2A88B6760D6
:104C8C0060686E76787D88949FA29B8485959895B4
:104C9C009F9E9697866357555F7171787C7A7D9A43
:104CAC00A8A99C6B545D646B73777D88878E9B9BE6
:104CBC009482878F949695989FA2815D54556B75BD
:104CCC0073807372829A9FADB079655F63686D7CF7
:104CDC008687858A9E9E9C85889A93969A938C8BC0
:104CEC00734C565B6A76737D787078979DA7A77521
:104CFC0059595965738282818289A1A9AE9D8C8E86
:104D0C008A858A9294967F544E5C70827C7168641A
:104D1C00688A9D959D7E54565661738991807376F1
:104D2C008BA8A2948488A1A299959B9C9F77575895
:104D3C0063857B6B61566072898E8F915F48585486
:104D4C0069868F84726D7792A8A48D7E8BA3A5A2A1
:104D5C009E929497885F617E847C7663606C718C84
:104D6C008B8493693D4E54637A81766F808DA4A5B4
:104D7C009B977173979289939E999A8E625C6F8EB2
:104D8C008B70514C565F85999CA58452525B6A84FA
:104D9C0084777881899AA1A3936C667E9E999CA74F
:104DAC00968487775D65696F725B5F696C7699AD88
:104DBC00A3906E5866626E807F74788C8F9EA49FD1
:104DCC008E666593A7A09D9A92807C7659606E72D0
:104DDC006E626D6E69778EA5A496876E675B596C53
:104DEC007E8487858694A5A8957A6D7A978E949DF6
:104DFC00978B8581555B6D7B957B67636263779D34
:104E0C00A7A29E755854626F7E8A827C8092A1A75D
:104E1C00A17D70767F8F8A909CA8938B6A54658154
:104E2C00ADA07950475A6F98AC9D9A774256787BD3
:104E3C0081887B6D70838E9CA39070686C8FA09B17
:104E4C009BA1A893916C5C819BAF8E534F595A7A5E
:104E5C00A2AA99906D425B7875786F65737A899A7E
:104E6C00A19D91645E7A8D9AA6B1A696949F7E5B65
:104E7C006E97A17A56525E6E839390859783636E7C
:104E8C006A646C7175777C7A8291909382747C8C55
:104E9C009BA19F99ABABA1895B576A8992755A63A9
:104EAC0076757A988C83846D5C6E736C7A7F797D61
:104EBC007983878E99927974849BA29CA09DA199E9
:104ECC0097684B5779A1916C5F716B6B87928C894A
:104EDC0081655F6158688283877471879291948F22
:104EEC007E7989A2A2969A9B9D998E6B4D5B80A030
:104EFC00A178545B5C637E9485837D6D67665A5F95
:104F0C007A7A7D8287848395958F87869BA29E9FD4
:104F1C009D9BA29C9F865E5B6089A48C543F4D5BDD
:104F2C00708D918981745455656D6B6B7474808927
:104F3C008A9598A39F8A95A6AD9CA2A59C999A9AAE
:104F4C00695A678096805E404C5A69809B8B7E764E
:104F5C00605059545D6D7382818B8E9193A3A5978C
:104F6C008EA1ADA1A0A9AB9C969693584D647C8F55
:104F7C0084624960706A708B7C7675685263666077
:104F8C006877878C8E8F8F92949098979FA7A5ACFB
:104F9C009E938C98A3955D454A6EA59F7E5B5B5C4A
:104FAC00586178899385674D525A61768493998FAD
:104FBC007A747F93A4A0969CA8A79E8D90989B939F
:104FCC009A734A576D9CA7845A5C59525F7F95908F
:104FDC00776A5F5A626C7678858183878383929D2A
:104FEC009B97999E9495979C91909698915B444D24
:104FFC007AADAB7C4D4C4F5771959886808360533E
:10500C0058506C9096837B7B818D96A4A5A5978A2E
:10501C00898E8B9095989391805352598DB0A2653F
:10502C004558675B729FA89C7661525B5A586C849A
:10503C00938D8A88848990A49A9687808C928EA26C
:10504C009D86858C835F5C6186B1AE7657575358CD
:10505C006F99A48F746A5B51606A728989828D8E94
:10506C00827C889E9D93837490A2A09490858A9D47
:10507C009D6951627AA2A27A59575E5F66929B89AA
:10508C008381765A5A696A728A8E90897F80869259
:10509C009BA09384808B918E93918F9FA38249497F
:1050AC005B85A198765C5E5A606C9BA495857D6D42
:1050BC0058646A67748E959A8C877A808F97998CCE
:1050CC008086968F898F8E8F96977C4D50669BAE7F
:1050DC009F72595556697DA7A08F737768535C6092
:1050EC007C969A8B88817C837D899A9D8D7573853E
:1050FC009D9E9E9686838D7058676B97B1A578544C
:10510C005A5F5F6D8C999B88735D4B5D637D9A993B
:10511C0095887D71757F8E9AA28C727D92A4948CE9
:10512C00867C939F976961627A99978864605C61C9
:10513C006F92A8947C79685059626E8D908E89829A
:10514C0077757E8F9AA194757893A59C8C847987BA
:10515C009F9F6F55636F95A898735E67666681A471
:10516C009F86665B565462718494908C7D78767BB6
:10517C008094A2968F797B94999192928490A49723
:10518C00635365769BAE9B6C595B676B87A0917A7A
:10519C00706C5656606A819591817370767C849F91
:1051AC00A9977E70859CA7958B7B81A09F9962584F
:1051BC006177ABB092635763666D8F9B867C71721F
:1051CC00585263697C8D9B8571727C8C989C958EF2
:1051DC007F818E9594918B84819CA899635766717D
:1051EC009DB4965F56676F777D82797A7A7D6C581D
:1051FC005A6E868C88797B86898C96938782888F69
:10520C0095969A9479749597A3A06D605B6798AB0B
:10521C00A8815B5D59656E8B917F797F785C606945
:10522C007A797B8194A08F80767C8A95A89E8884DD
:10523C0090937A788099A6A78C5D565383ABA99AE4
:10524C0065545353688D9C948B6B6B5D5A66717F60
:10525C0089948E8F907A70818E97978D8A86999A81
:10526C008580738098AAA96955575F9CC1AD7E5201
:10527C004D4E5D7A9B998576716F655D6176868BF7
:10528C008E877D7A7A81898EA0937E7C8F99948883
:10529C0082808EA99D81515D677AABA59961495138
:1052AC00546B8AA8987765726E6071707A7C88905E
:1052BC0087847E838888909391837C94A7A3847140
:1052CC0073869DA38A595B5B7FA6A591584B556449
:1052DC006F8BA49079707A7B67686E74858A8D84E5
:1052EC0084827C80848E898F928B8B969B83767A3A
:1052FC008194A08F5B5C5C7CA09F9B6546525D6C2F
:10530C0084A092776D78896D616E7B8784888685A1
:10531C0087807E81818FA39D8E838E9D9081877DDA
:10532C008EA2906A52556EA8A8956A475B5A6B7DFF
:10533C00908F80737786715561798A8A888F837C88
:10534C007A7F8B88969C978D828BA19C827A7691A2
:10535C00A9A0734C5565969C9982555C62666279DE
:10536C008D918E767C6E53607E928E8D7881817C51
:10537C0080818592A7A6957A7E969889797D81A160
:10538C00A6996148556DA7A79D7059675D5E6A84A3
:10539C009793897C755A4E69838F908D79766F724D
:1053AC007B8D99A9AF977E6F7E96A68D868084AAF9
:1053BC00AC9052434F8BBAA79A67515C5B5D779068
:1053CC009B8B847B6B4E47769096817471717E8932
:1053DC00919399A3A093777A8B94957F808198B8B9
:1053EC00AC7B403F5C9BAFAB956357525763789156
:1053FC0099928E79634B5380919B857169748794D4
:10540C0092817E97AF9F837A868F8A848A8196B5A4
:10541C00A77E44395D96AFB1955F52525863769131
:10542C009E977E7266525E718298896E6B7C848CBC
:10543C008A898F919AA0847986908C8A928D93A177
:10544C009A845C505985A6A9A06C54595860768CE6
:10545C009B8F73666F66677B8387796B7980848695
:10546C00898A95A2A195776A89AA9E857F7D87A353
:10547C00A699674D51749CA9A576515156697584AE
:10548C00978477717271636C768588837C7A797D69
:10549C008E98A0A1998E7A6986A0A1877B887F9629
:1054AC00A09F7F4A495D96B1A9884F4C565F768282
:1054BC008C8378757378676671829988766D75823E
:1054CC00838D929F98968E6E6F8DA1A1908E7B7F0F
:1054DC009896925E495A89B6B08A52455C5F67735A
:1054EC008494817870717A686E7787867373727A18
:1054FC00848997A0A69C8E7F6C7E98A5998C8974C4
:10550C0089938B885D567095AC9A6E4C5B645E5F2C
:10551C00698A90847E7979706A787A897C797E7DC3
:10552C0082848FA0AA9F998472758C9D948D8D8C8A
:10553C007F9B9F9277484E628FAC9F755257555FF9
:10554C006A75958F7A716D7B73738182867D7476A3
:10555C007F899495969991948C8383899093879065
:10556C008888A196957045506995B0A2714D505D93
:10557C00686D7B928775757A83797A7D77817E7970
:10558C007B848A949C999D9388837784949F908341
:10559C00867B859F98966E49476295AFA26D566241
:1055AC0061686E7A958976696E858180868483754B
:1055BC007781929497928A929187807982949D8C2C
:1055CC0075767283A79E987249536B99B2A06551F8
:1055DC0059606B7089989178757B8683757B777E23
:1055EC007A787F88978E948A8E948882747E899537
:1055FC008F8388877E95928C835F5C658AAB9B6C6E
:10560C0051636D736D728B83757273808078747057
:10561C00767A7B7A88989C9A968A8888877F78870E
:10562C009C9E8482857B999F9A8F5B4F5F84A1930C
:10563C007A585E6362666678837E827D7F8B7C6D32
:10564C006C6D76797A8C958D8A8F95928A91897CFE
:10565C007A8C989090917B8293869166526D75941A
:10566C00988F726365605E5D728181847F818B86A9
:10567C007976717776778A95938B868789808894EB
:10568C008B828B949198998974868E918C5F5E5FD6
:10569C00739D9C83645E635F5A6378858481808983
:1056AC008983716263777F87959192938F8B8D8EAF
:1056BC00948D7E84949D90877E7B8198A09E795555
:1056CC005A6182989072555D5C5B616682878180BD
:1056DC008A8E8B725D5D7484838D949D9B8F7F8A83
:1056EC0090989C868590969B857D837D92A29A8DC1
:1056FC005E4D5A6A93A1875F545656626C82908AAB
:10570C007C7E839283676966818D909597928E8358
:10571C0086969C9F8A7F8C939C9B88827772939BA6
:10572C009282524F5B759791724E525B656A6C8494
:10573C008E8280848D8F756968728E979B958F8D04
:10574C0088838A90979C9487898F98907B7C7C7DAA
:10575C009F9B8A7651586074928C6F575E615E661F
:10576C0071828B8986869595716169788B8F9296FB
:10577C009088857C858D8B968F858684948D7E888C
:10578C007E84A790947B4B595D799A9378635F5F85
:10579C005A606C8D938A91979A8B6353657B8D902D
:1057AC0090958F7E7F7D8487899190847F8D8F8764
:1057BC007C877E88A796927347566381A99D7B60F0
:1057CC0058555863748F9993888D91866955657F68
:1057DC008A93999D927F79737C8594A29B8C857F0B
:1057EC00898380927E87A492947D4959627DA0938F
:1057FC00745E5D5E58595E7C968C878B9087685082
:10580C0063809089918F898780848686929F9E91F0
:10581C008988928D828E8A91ACA09B874C4D5D7746
:10582C00A39A75554F595A6265708D87868C838300
:10583C006F545C6F868C999E948579757F8C9AAB2E
:10584C00A991827F89948E9189829D9F9888534AD1
:10585C005875A1A2825F5056585F637195928B86E2
:10586C00767B725C62738C979E9B9484787577853B
:10587C0098B1AF8F747288988C84857D9AAA9D9309
:10588C00614A596594A68E705A53545B63718F8D1F
:10589C00898D81877D5B60718194989896857B77E3
:1058AC006E7A8BA5AE8F777081958D8586818DAB49
:1058BC00A79B7A4E565E7DA0997F645D5C5C6265A9
:1058CC008699979689837D605A69778A909696888F
:1058DC0078746E768296AD97776D758E8F82898689
:1058EC007A95AA9D8D57455F7EA8A9876657545413
:1058FC00676D819F9E90837C837C69707C878F8D84
:10590C008D87857D6F777E94AAA2866A678298942C
:10591C009491777F9C9A95734A586889A18F735B91
:10592C00585A637073929E908A7F7F8670697C83CD
:10593C008784868D8B84756B77899CAA92736E761F
:10594C0093968C9A89748E9A948E5D4B5B719F9E04
:10595C007E5D50636E7875799A9785847E8C8F6A9C
:10596C006B7275828D918E887C706C738AA4AF94E7
:10597C007B747D94898C9980829C93987E4F556022
:10598C0080AA976E51566871716B829B9692857D39
:10599C00897063727A878B908C817A7674747D8F20
:1059AC00A9A8887A7B8E8E829099818D9C9393681E
:1059BC004B586393A18765545C666A646C889F9EA0
:1059CC009285817F5F5F738093979E927C737277D1
:1059DC00859197ACA0847C818D827B8D917F97A0E3
:1059EC00999257455672AB9D836B585A5D555C77AF
:1059FC0098A9A1857B83775C637485939492847555
:105A0C00706C748E989DA79074748595877F91881F
:105A1C008499979F90564A597FA3907D685D656ADB
:105A2C00616978909C978381907B6265647A8B9393
:105A3C009A8B7E7567738792A6AF8F7674808E80F3
:105A4C0080948F8E9F929B864D4C628D9C8D7A623A
:105A5C00636369686B7F99988E7D7C8977626C71C2
:105A6C00848F8E90897F72707D8490A1A5897979BD
:105A7C008590808591848EA3979A7D43536B8F9CE0
:105A8C008275615C62686C71899B8D8A7982927572
:105A9C00656B7992939591897C6F6C778794A6A4AA
:105AAC007B747282959496977F849F99A0864C57AD
:105ABC0066848F857A64646168686A879A958E7E3D
:105ACC00828D766266718F969894827E726D737CED
:105ADC0093A7AC8472757F8C8C939B898C989696CB
:105AEC007D525266868B8578606468676B69829597
:105AFC008E887E8B8B6F5C5F75949D9C8F7C76758E
:105B0C0072808B94ABA7817174868B838F95828402
:105B1C00979B9D84544F5D85958E7B5D616166710D
:105B2C00718A998E82788E917660697280898D8F58
:105B3C008074736A7E8F90A1A184707A8D969399EC
:105B4C00988178959EA3955F515474919280616170
:105B5C005E5D68677E98928676858F725A626F84D6
:105B6C00909795867874758597959EA4917E7F8B7A
:105B7C008F92999884718F9B9A9156464E709392FE
:105B8C00855E5F5D5A6D6F839A9B957E858A7D637A
:105B9C006678868F968E80736C6B7A8A8F969D8EC4
:105BAC00797B8A90888D9D988792948C90664D63B2
:105BBC007696948364615E5C6D7A7B8C9287798235
:105BCC008982655C71879999877776716E79858DF5
:105BDC0099A09377718998908D999A8590938790D5
:105BEC00734C6572909081706C666164737A889A5C
:105BFC008E7F7C827D6D6472889F9A8C7472706BC0
:105C0C007E87909696947A7180918E8496A08D8BD7
:105C1C00958C988B50506087978D78696766697002
:105C2C006F758D99908882786E636C798E8F888071
:105C3C0075736E78838D93999B84747A9099878B06
:105C4C009991889491959D604C58799B9582605957
:105C5C0061636E6F768E9791817E7D7A686B758AA3
:105C6C0092919080756D6D7C94A0A6A391766C7BBF
:105C7C00918D91A99A787982859C70444D5E8B9117
:105C8C00866D6265646D7174889AA191847E7C685E
:105C9C006B778192928D81746E717D93999CA29C8D
:105CAC00826E7A94988791917A818F8690865051E2
:105CBC00597D96856F6061656D6D6D79959D89785F
:105CCC007C88786A707895A0907C71737881929AB0
:105CDC009E9F9D84758193998A8D9D8A7C8C8886E4
:105CEC008A614E60739482726361626C7978738995
:105CFC00978E7C7F8A806E68728797978777726998
:105D0C0074879798959C8F7A79869991899A9785BB
:105D1C008E90868E7E515863838D7E70646166771B
:105D2C00776D78939A857A818176636877949F955D
:105D3C008078716D778B9C9D988F7A7483938E7E0F
:105D4C00929F908688888F986E515E7496917E672C
:105D5C005F5C696D6D6E8CA794797778786F6C74D5
:105D6C00899E958474726F72848F92929D917978CA
:105D7C007E8981869B9C918C8B878A855B5F718BDE
:105D8C00968A6F635F666A6A67759EA08374737A7E
:105D9C007F71737C94988B7F757470798990989EC1
:105DAC009A887975828281919D9180848C8A906F7A
:105DBC00536277968E7C64626B6D726E6D8C9E9165
:105DCC0078737E867B6A7383948F887F7D7E8083D5
:105DDC00838F97A0987E6A778F8882908D8283912B
:105DEC00908B8B5F5367808D81746B6F6E6D6F6D55
:105DFC0075929F8F79747D816D6C7987958B877E79
:105E0C008384878A8B8C909B947D728389828A8F02
:105E1C00888793998B938256596986897A6C6970B5
:105E2C007173726D7C9096836F737B7A6A6E7D8EC4
:105E3C008C837F81868688838A94A09E8370788DDC
:105E4C008C8B92938B848A8F8D9C785963768C7D06
:105E5C00695F7079716E6E71868C837479878F7DB2
:105E6C006970858B898C837E7B8791898A888F90DA
:105E7C007D748194958F948A8084909192986250CD
:105E8C005D7E93856A69858370615D6B8E9C8A7972
:105E9C007B84877071828E8C827B75747C84858701
:105EAC008F9895866E6E88928B949F9485818C8C3E
:105EBC009A8E58595F7E857768717F7061686876B5
:105ECC00908D786F7E8C8C7D75788287857E787BC3
:105EDC0084898680829098856E788D979298928A24
:105EEC008C8E978D937A5257668688746971796F08
:105EFC00696D647995928280878E8F756E788788AC
:105F0C00807E7F7E7F797E878F96917B76848A8D4B
:105F1C00909E988E868A908B93724D556880817274
:105F2C006A72797472716980948F818588908265A8
:105F3C006B7A8F8E85827F80827C7F889294897524
:105F4C0076838E8F8A918E88898C8E929B6D4A5522
:105F5C00697D796D6D797D6B6A6B6B86969186899F
:105F6C008F957F6C7183958D837D7E807F797B8609
:105F7C008D96908480848E8A848C898C9291939453
:105F8C0090543D5872887B6B6D7878666C72778C08
:105F9C00938D8486888D786D788E9A9281737881B2
:105FAC00857F848C9599897E7B8A938A8791909141
:105FBC00898388948C4F4B5F73897768738583745E
:105FCC00756E72888E837C838C91756A7990968CB1
:105FDC007B76848E8678808D9C998475758A918366
:105FEC00809294918A8D97A1844C5462798B776AB4
:105FFC007B81766D6B6774918D7A79828C8A6768F8
:10600C008098947E6F7280897E77848E9894867740
:10601C00798D968585948F909291939B7F505B6937
:10602C007C88746979807C70676172908574747AED
:10603C008984666C8097928074767E888179818958
:10604C009B9D8C7B7A8D9480828E8E95918F929C69
:10605C00855A6367768377727C827B6E6761718AFF
:10606C008276747C8C806A7685908C827C7F7E8430
:10607C007D7A7F849B988777788F9481828E939793
:10608C009396979A81575E636E787479847D6B6171
:10609C005F657993907F778092866C7585989281F5
:1060AC007A7E7E7D767A7E85999A8C7777898B7BC2
:1060BC00808B8F9390939593754E5F6C767E7275F3
:1060CC00847F6E61656A829F94817981938B7176EE
:1060DC00889B90837E7F7A766F757E8896988B7777
:1060EC0075818274838B8E9493928C8F785A6C6F9B
:1060FC007884747581806F67706D7E998B807C82DB
:10610C009189727685938C7F79777679767C808984
:10611C0092918572778C92848E908F93908C8E96C0
:10612C00826067676F7A7076828470676968799627
:10613C008A7E7C8696896D6F7C8A89807D7D7E7C4B
:10614C0078787C8A96958D7E828E887A87959294C3
:10615C008C8D91938057606970796F7984847065A8
:10616C006B73829B907D7B82938C70717C89888011
:10617C00767477747477808F9E9D8F7C7C84817EFF
:10618C008A99949591929090815D646971776C7500
:10619C00808578696B6A778E8B7B7982949776721F
:1061AC007F878981727372787C7D84899A9E8E7CBC
:1061BC007F87837F8B9993908E908D8D7C595A60BD
:1061CC00717D72788389796467697892908382850E
:1061DC009394716B7C888C878080757673778188BB
:1061EC00989A8A777E89847A8497948E8F908E8EF3
:1061FC00805F606B7C86777681887561676F7A9437
:10620C0091857F7C878B6C647B8A8E847D8076768F
:10621C00737079859AA192807C8A8C828A9C978EE5
:10622C008C9394958F675C63707D706F7C87765FC1
:10623C00656B6F888A827B7A8B957A677384918C75
:10624C008482787477777E86979D93857A84898308
:10625C00859A999294949291917059606976726C26
:10626C0078877965676B6A7F8C857E7A899A846E6C
:10627C0073808F88817F79787D7B7C8596998F85DB
:10628C007986918981919A979B9B968E8F7357648F
:10629C006F77726B7384785F61686C8390867B7A9E
:1062AC00879481677186958C807C7A7C827C777EE2
:1062BC008E989893837F8581798D9C949797938AF8
:1062CC008C7858647074716E76887F625F646981B3
:1062DC00978D7D747E948C6E6F7B8C8B86857C7A8F
:1062EC007A75737D929C9992827F878679839A9531
:1062FC00999A959294875A586872747274858A6DBB
:10630C00656767748B8C858188938B6A697A8886BC
:10631C007C807E818378737B8B9CA09A8C807F8120
:10632C00797F978F909896918D896056666E72746E
:10633C00768089695F686A73878B878287969A767D
:10634C00636F7E8B8D8B7E787A78757B8898A09C1A
:10635C008E7E7C838280948E8A9797938B896652EB
:10636C00667277716B7287746969656A7F90908ABF
:10637C008A9298785F6D7E92938E82777676747A15
:10638C0084939FA19A887C78787687908C96989342
:10639C0088877053616D727072758A7A60606067FD
:1063AC007A929287848C9A8A6A727D8C928E887D7E
:1063BC007A7773757D8EA1A2998779797D79808D95
:1063CC008C959D988B8A7A555E68707477788884E2
:1063DC0065605F616D8C9791868B9A926B6D7A85F7
:1063EC0093928C8279736F717A87999E97877D804F
:1063FC00857E7E8B8B939B968D8D8C635A61697297
:10640C007A80888A6C5E61656A84999788828D8EA1
:10641C006B62788490908A8076736C697684959F91
:10642C009B877E8186847E8D91949C99928D9A799E
:10643C005F676A7071767E8B775F626766798E9321
:10644C00897F88947A5B71818E948B7F74716E6D69
:10645C00778294A1A3927F7C7F8780909A92999661
:10646C00928A96885F5E646E6C6E78867F635C61E0
:10647C0061728E9A937F7F918A676F808C938A83E7
:10648C00797376747A83919DA3977C7B7A858489C2
:10649C00988F928F90909294685662717373757BFB
:1064AC007D655965666D89999385818C977A6C7E2B
:1064BC008B938E8A7F767671747D89999E977D7980
:1064CC007B878C8291918E9291908D98755C676E82
:1064DC006E6C6F7783715C646B6C86989186818728
:1064EC0099876A7A8898978A7E6C696F767F889785
:1064FC00969785777B85908590948C928A8B8D95D9
:10650C00815E636A6B666B788782675F6968789770
:10651C0097837D82929677757F8C938B8875666C4A
:10652C006C78869297998B7473798C8C8C989498E0
:10653C00918C8F90885D596D746F6C6D76837266DB
:10654C00726862839A968F8B8D997C7080848B8510
:10655C00807C6E716C6F7A83939A97817170868F41
:10656C008698999B9A87898E957459656A6D707710
:10657C007B81725F696F667B99A0928A8C9A86691F
:10658C00737A85878081736D6D6B757E8F999C8E08
:10659C0076718496888991939F92939497875A5D8C
:1065AC006A6F72787A7B7866606A64698DA4998C5C
:1065BC008A92926E697B898F8782766B6F6F757901
:1065CC0084909B9D85737B8F8D8795989D988F8FDD
:1065DC0092976A58636469727B7F83756364625FA8
:1065EC007D9F9E8A848B9C8265707D8A8D8B847343
:1065FC006E6D727A84929A9F8A72788C92858A9642
:10660C009A9D8F8A8A947B5A6164686E777C8680A7
:10661C006B65665E71979E8B81859C986E6A788A95
:10662C008E8B897B706F71747E8B929D947670804B
:10663C008D878294989B928B8F94895D5A68737422
:10664C0073747B8578686D6767889D968584919D4A
:10665C00796574849185837A6D6D71787D888F9955
:10666C009E88757880877C8B9B9993878F91947487
:10667C005A67727875777B89836A676B6379959AA9
:10668C008C8082968E6B74838D86807F737173750C
:10669C007A808992A09478707B8782829699998E61
:1066AC008B90988D61606A6E747978848A6E5D6A5D
:1066BC0068688A9A8D7F7E92A4806873879186849D
:1066CC007B757674797A8593A19B7E6C72888D7FAD
:1066DC008694948E8B90929A7053657176737076C3
:1066EC008981666167627A9D97867E89A896666DB8
:1066FC00849891857C6F7777787A808B939D89725B
:10670C00717D847A7F9396928A8D909D8958626E62
:10671C00727170748389705A66686E99A4908084C3
:10672C009DA77C6C79868E84827973736F747A885A
:10673C00959C957C727782847D8B9693908F9191AA
:10674C00936B5F6B6F6E6D727C897D64636C66841A
:10675C009E988A8290A58F676C78888C8B816D6EE1
:10676C007070758291989A8A737481878286908EE4
:10677C00969A968E9480636A6C6767707183886E44
:10678C006067667097A0908285999A7667728796F3
:10679C0092836B67707475778896A29B80717587EE
:1067AC008A8690939598968E8E906C6066686A70C7
:1067BC006D72887C6567676385A399887E829789EB
:1067CC0068718796968976686E72727987949EA0A6
:1067DC00866F6D7D908B8E9B9A98948E8A98836031
:1067EC00636A6C6A6A6980866A5F665F6D9CA39156
:1067FC00837988997A6A7C8B959088766D716E75A1
:10680C008794989F95776D78889089949B94928AB9
:10681C008490987261666A6A6C6B74877A68636735
:10682C005F7DA0968B82889684646A809698918608
:10683C00736D6C717587949BA2886F72838C85893C
:10684C009B9A958F8B8CA18B6160656A6A6F738143
:10685C0084716264636B909D938688938F6D667A66
:10686C008A9890867C6F6869717D8C98A29A7B70EF
:10687C007C86847A8D9E9D9D928790956E5E686FC6
:10688C006D72717B8D806B62645E7C9F98877C8659
:10689C009986696F7B8F91887E746C666C74859316
:1068AC009FA2886F6F7E8B858A9E9B9C928A8B9F02
:1068BC00906361686E72746F838E7560645D6492B0
:1068CC009D91828291947767788B968A7F736A68A0
:1068DC006D717B88909D9580717A8A8C8792999244
:1068EC00948F929AA1765C636C6E7677788F8364C2
:1068FC00636B5F7498938A81889184676C80918EA6
:10690C008481746A676F74838F959F927A6D7B888C
:10691C0085859595979390939C8E66656E6C6B733D
:10692C0077868E746068615F8394938D89918F7381
:10693C00647C8F988D837B6F656871829191989937
:10694C00816669818C89929A94948E8F94987760E1
:10695C00696D6B6E71788E88696266657A979891AD
:10696C00848894876770818C8F827B736D6B778141
:10697C008B8E8E9990796B748082869C9A928F8C78
:10698C0092948C6A6C79746C69697E927B615F5F9E
:10699C00688A9E968780919C846E78828F8E837D88
:1069AC0072686B747B8A8C959887736C76848B94E5
:1069BC009C939390928B897C686D6D6D6A6B738CD4
:1069CC008D71645D667D999E988884938B6D707FC4
:1069DC0085958C7E776E6C76747A8D979D917865A3
:1069EC00677C898A9996939A988E848A7067716E5F
:1069FC006E7372758874605F66718E9F97908289D2
:106A0C0097826D7E858D9789786F6B707779868F7D
:106A1C00959C877365698089939D97958E8F8284E9
:106A2C0080646C72716D6B697C8A6D60676D799630
:106A3C00A199867D8F997F757F819B9782766B67F5
:106A4C0070797F8E9697907D6C6172888E99998FF4
:106A5C008E938F808E79666E6D6E6F666C8E86628D
:106A6C005E64617E9D9B96847D918F7079899298EE
:106A7C008F80726D6F747A86909AA088726A6F821A
:106A8C00888E9A9A95939C8D8285635F6B72716BDD
:106A9C0067798C755E6162678A9F9E8C7985958417
:106AAC00717C8699978E8073666B7B868E929B9B8E
:106ABC00816C677B88899BA0929392958A8E7B5E72
:106ACC0065697073666B8A8B6D615C57739BA2985A
:106ADC007E70869982767D87989888756D676B7FB6
:106AEC008788929D907B6C70858E8D9D978B9295EF
:106AFC0093869071616C6E7170656C8C88675C5B51
:106B0C005B829E958780868F94766E798B9492802B
:106B1C006F636A727D888D9897907B7283938E8F4A
:106B2C00988C90989E8F8582666975736E6A68766C
:106B3C008A7C5F5C5A668C9E98857E8D9282757677
:106B4C007C818E8679736A6E798288919698918011
:106B5C0074838E899398949A979784877B626A68DA
:106B6C00686A6A6F858764585B5B749DA1957F78B2
:106B7C008F967D747C80848B8375706F6F7C8B9209
:106B8C00939495857878878E929C97969A9B928011
:106B9C00896D616865646465749488635B5F607C0F
:106BAC009E9E90818692866E6F7E8F92847C6E699B
:106BBC0073747D8A93999B937C717A868FA0A79826
:106BCC00909197838286666869666566677C907625
:106BDC005A5E646D90A29682798C967E6C738391CA
:106BEC008C807D71737B787C8493A3A187706A7E83
:106BFC008593A39D908B9397818677606E6B6E6B5C
:106C0C0068687E8265586367769BA19385849490AF
:106C1C007268768B978780736D767F82858D96A34D
:106C2C00947E7278898B8F9C9A999D9D8E757F69C5
:106C3C0069706A6A676670887D645C5C5F7E9CA024
:106C4C00918485948C737274868E87837572757C2F
:106C5C00848A92A1A88E766E75858C94A5A29C9739
:106C6C009780767D6265676E73716B7687715C5900
:106C7C005366919F958379869C8A7175788C938CD9
:106C8C007D70727279838A94A5A18270737D8C91C8
:106C9C009CA6A09A9594757A79626667706F6C66FB
:106CAC0077836A5E605A779F9E8E7D7B8F997B720D
:106CBC007E818A87816F6970717B848A98A2937DAB
:106CCC007C8389918F999E9B93948A7282705D606C
:106CDC006871716A6A82816B69656485A29D897429
:106CEC007E99916E6F798387847C6667747B8590BF
:106CFC00969FA5927E807E8994959D9A958C8D7990
:106D0C00758367616364696B667C967F64615D6F94
:106D1C0095A59D8A7C8B9A7F636E7A898B816F6334
:106D2C006D797D8A98A3ABA283797D819192969996
:106D3C0094918E876A7177646765636A6B687F8FDD
:106D4C00776867627396A1998F8C918B6D6577814B
:106D5C00837F7B736F767C87949CA7A992767882CD
:106D6C008E938A92958A898A7D6C7F796765636632
:106D7C006D6B6D868A716A6860799EA597858B9517
:106D8C008E726C7B8383807C726E747C8B94969DEC
:106D9C009D846F74818F938A94948A8A8C7F778C6C
:106DAC00796864636A716B758E866D68605D84A0AA
:106DBC00A08E85939B896C727D89867D756B7179AC
:106DCC007A8089949E9A8271778592938F99969303
:106DDC008F8F797A82666260666F716B7D8D7C6550
:106DEC00645D6C99A49A878C9D9E7D667685948B48
:106DFC0086786E7473737A87989E92766B77838B92
:106E0C008890989393908C7783776262606B706DA7
:106E1C006C878C7161626180A5A89785909C926D3E
:106E2C006680989D8C7E6D697175787E89969C8F35
:106E3C007570737D7F8297989694938979836C6330
:106E4C0064656A6F6B76948A6E615E698DA89D87A6
:106E5C007F91A2906E708394938678737379797C0A
:106E6C0088929E977C65626E82868A959397969A95
